:020000040800F2
:100000008034002011260008CF4F0008FD2500088D
:10001000FD250008FD250008FD2500080000000062
:100020000000000000000000000000000D27000894
:10003000FD25000800000000D92600088D350008C5
:10004000692800086928000869280008692800084C
:10005000692800086928000869280008692800083C
:10006000692800086928000869280008692800082C
:10007000692800086928000869280008692800081C
:10008000692800086928000869280008692800080C
:1000900069280008692800086928000869280008FC
:1000A00069280008692800086928000869280008EC
:1000B00069280008692800086928000869280008DC
:1000C00069280008692800086928000869280008CC
:1000D00069280008692800086928000869280008BC
:1000E00069280008692800086928000869280008AC
:1000F000692800086928000869280008692800089C
:10010000692800086928000869280008692800088B
:10011000692800086928000869280008692800087B
:10012000692800086928000869280008692800086B
:10013000692800086928000869280008692800085B
:10014000692800086928000869280008692800084B
:10015000692800086928000869280008692800083B
:10016000692800086928000869280008692800082B
:10017000692800086928000869280008692800081B
:08018000692800086928000845
:10018800FFFFFFFFFFFFFFFFFFFFFFFFFFFFFFFF77
:10019800FFFFFFFFFFFFFFFFFFFFFFFFFFFFFFFF67
:1001A800FFFFFFFFFFFFFFFFFFFFFFFFFFFFFFFF57
:0801B800FFFFFFFFFFFFFFFF47
:1001C00030B490F800F020F007016FF0000C10F050
:1001D000070491F820F040F048804FF000046FF0E1
:1001E0000700D1E9002391F840F000F1080082FAFD
:1001F0004CF2A4FA8CF283FA4CF3A2FA8CF34BBBC8
:10020000D1E9022382FA4CF200F10800A4FA8CF240
:1002100083FA4CF3A2FA8CF3E3B9D1E9042382FA0E
:100220004CF200F10800A4FA8CF283FA4CF3A2FA23
:100230008CF37BB9D1E9062301F1200182FA4CF25B
:1002400000F10800A4FA8CF283FA4CF3A2FA8CF3C2
:10025000002BC6D0002A04BF04301A4612BAB2FAE4
:1002600082F200EBD20030BC7047D1E9002304F0E9
:100270000305C4F100004FEAC50514F0040F91F81E
:1002800040F00CFA05F562EA05021CBF63EA0503BB
:1002900062464FF00004AAE781F0004102E000BF8F
:1002A00083F0004330B54FEA41044FEA430594EA36
:1002B000050F08BF90EA020F1FBF54EA000C55EA71
:1002C000020C7FEA645C7FEA655C00F0E2804FEA42
:1002D0005454D4EB5555B8BF6D420CDD2C4480EA24
:1002E000020281EA030382EA000083EA010180EA54
:1002F000020281EA0303362D88BF30BD11F0004FA2
:100300004FEA01314FF4801C4CEA113102D04042D7
:1003100061EB410113F0004F4FEA03334CEA133312
:1003200002D0524263EB430394EA050F00F0A7802A
:10033000A4F10104D5F1200E0DDB02FA0EFC22FA25
:1003400005F2801841F1000103FA0EF2801843FA19
:1003500005F359410EE0A5F120050EF1200E012A0A
:1003600003FA0EFC28BF4CF0020C43FA05F3C01848
:1003700051EBE37101F0004507D54FF0000EDCF1C1
:10038000000C7EEB00006EEB0101B1F5801F1BD36A
:10039000B1F5001F0CD349085FEA30004FEA3C0C6E
:1003A00004F101044FEA445212F5800F80F09A8064
:1003B000BCF1004F08BF5FEA500C50F1000041EB68
:1003C000045141EA050130BD5FEA4C0C404141EB6C
:1003D0000101013C28BFB1F5801FE9D291F0000F67
:1003E00004BF01460020B1FA81F308BF2033A3F116
:1003F0000B03B3F120020CDA0C3208DD02F1140C0D
:10040000C2F10C0201FA0CF021FA02F10CE002F147
:100410001402D8BFC2F1200C01FA02F120FA0CFC40
:10042000DCBF41EA0C019040E41AA2BF01EB045189
:10043000294330BD6FEA04041F3C1CDA0C340EDC87
:1004400004F11404C4F1200220FA04F001FA02F3CA
:1004500040EA030021FA04F345EA030130BDC4F188
:100460000C04C4F1200220FA02F001FA04F340EA7D
:100470000300294630BD21FA04F0294630BD94F02E
:10048000000F83F4801306BF81F480110134013D15
:100490004EE77FEA645C18BF7FEA655C29D094EA86
:1004A000050F08BF90EA020F05D054EA000C04BF04
:1004B0001946104630BD91EA030F1EBF00210020EF
:1004C00030BD5FEA545C05D14000494128BF41F08E
:1004D000004130BD14F580043CBF01F5801130BDF2
:1004E00001F0004545F0FE4141F470014FF000007D
:1004F00030BD7FEA645C1ABF194610467FEA655C2E
:100500001CBF0B46024650EA013406BF52EA0335CF
:1005100091EA030F41F4002130BD00BF90F0000FBD
:1005200004BF0021704730B54FF4806404F13204F9
:100530004FF000054FF0000150E700BF90F0000FB2
:1005400004BF0021704730B54FF4806404F13204D9
:1005500010F0004548BF40424FF000013EE700BFA9
:1005600042004FEAE2014FEA31014FEA02701FBF39
:1005700012F07F4393F07F4F81F06051704732F06B
:100580007F4208BF704793F07F4F04BF41F40021C2
:10059000704730B54FF4607401F0004521F0004120
:1005A0001CE700BF50EA010208BF704730B54FF0AA
:1005B00000050AE050EA010208BF704730B511F0AB
:1005C000004502D5404261EB41014FF4806404F1E3
:1005D00032045FEA915C3FF4D8AE4FF003025FEA69
:1005E000DC0C18BF03325FEADC0C18BF033202EBED
:1005F000DC02C2F1200300FA03FC20FA02F001FA47
:1006000003FE40EA0E0021FA02F11444BDE600BFE9
:1006100070B54FF0FF0C4CF4E06C1CEA11541DBF98
:100620001CEA135594EA0C0F95EA0C0F00F0DEF863
:100630002C4481EA030621EA4C5123EA4C5350EA48
:10064000013518BF52EA033541F4801143F4801399
:1006500038D0A0FB02CE4FF00005E1FB02E506F02A
:100660000042E0FB03E54FF00006E1FB03569CF07F
:10067000000F18BF4EF0010EA4F1FF04B6F5007F85
:1006800064F5407404D25FEA4E0E6D4146EB0606F7
:1006900042EAC62141EA55514FEAC52040EA5E5080
:1006A0004FEACE2EB4F1FD0C88BFBCF5E06F1ED82A
:1006B000BEF1004F08BF5FEA500E50F1000041EB61
:1006C000045170BD06F0004646EA010140EA02000E
:1006D00081EA0301B4EB5C04C2BFD4EB0C0541EA30
:1006E000045170BD41F480114FF0000E013C00F345
:1006F000AB8014F1360FDEBF002001F0004170BD69
:10070000C4F10004203C35DA0C341BDC04F1140481
:10071000C4F1200500FA05F320FA04F001FA05F20D
:1007200040EA020001F0004221F0004110EBD370DA
:1007300021FA04F642EB06015EEA430E08BF20EA06
:10074000D37070BDC4F10C04C4F1200500FA04F3A9
:1007500020FA05F001FA04F240EA020001F000413B
:1007600010EBD37041F100015EEA430E08BF20EAAE
:10077000D37070BDC4F1200500FA05F24EEA020EF6
:1007800020FA04F301FA05F243EA020321FA04F025
:1007900001F0004121FA04F220EA020000EBD370DC
:1007A0005EEA430E08BF20EAD37070BD94F0000FDC
:1007B0000FD101F00046400041EB010111F4801F10
:1007C00008BF013CF7D041EA060195F0000F18BFC1
:1007D000704703F00046520043EB030313F4801FFD
:1007E00008BF013DF7D043EA0603704794EA0C0FB7
:1007F0000CEA135518BF95EA0C0F0CD050EA4106CD
:1008000018BF52EA4306D1D181EA030101F0004149
:100810004FF0000070BD50EA410606BF1046194671
:1008200052EA430619D094EA0C0F02D150EA01367D
:1008300013D195EA0C0F05D152EA03361CBF1046BE
:1008400019460AD181EA030101F0004141F0FE415D
:1008500041F470014FF0000070BD41F0FE4141F4E1
:10086000780170BD70B54FF0FF0C4CF4E06C1CEAE1
:1008700011541DBF1CEA135594EA0C0F95EA0C0F96
:1008800000F0A7F8A4EB050481EA030E52EA033551
:100890004FEA013100F088804FEA03334FF0805572
:1008A00045EA131343EA12634FEA022245EA11159F
:1008B00045EA10654FEA00260EF000419D4208BF50
:1008C000964244F1FD0404F5407402D25B084FEAFD
:1008D0003202B61A65EB03055B084FEA32024FF4A9
:1008E00080104FF4002CB6EB020E75EB030E22BF06
:1008F000B61A754640EA0C005B084FEA3202B6EBC6
:10090000020E75EB030E22BFB61A754640EA5C0074
:100910005B084FEA3202B6EB020E75EB030E22BF04
:10092000B61A754640EA9C005B084FEA3202B6EB05
:10093000020E75EB030E22BFB61A754640EADC00C4
:1009400055EA060E18D04FEA051545EA16754FEA26
:1009500006164FEAC30343EA52734FEAC2025FEA44
:100960001C1CC0D111F4801F0BD141EA00014FF0D3
:1009700000004FF0004CB6E711F4801F04BF0143A4
:100980000020B4F1FD0C88BFBCF5E06F3FF6AFAEC0
:10099000B5EB030C04BFB6EB020C5FEA500C50F150
:1009A000000041EB045170BD0EF0004E4EEA1131D3
:1009B00014EB5C04C2BFD4EB0C0541EA045170BDDA
:1009C00041F480114FF0000E013C90E645EA060E1E
:1009D0008DE60CEA135594EA0C0F08BF95EA0C0F4C
:1009E0003FF43BAF94EA0C0F0AD150EA01347FF494
:1009F00034AF95EA0C0F7FF425AF104619462CE76B
:100A000095EA0C0F06D152EA03353FF4FDAE1046CD
:100A1000194622E750EA410618BF52EA43067FF41E
:100A2000C5AE50EA41047FF40DAF52EA43057FF4AE
:100A3000EBAE12E74FEA4102B2F1E04324BFB3F557
:100A4000001CDCF1FE5C0DD901F0004C4FEAC00245
:100A50004CEA5070B2F1004F40EB830008BF20F029
:100A60000100704711F0804F21D113F13872BCBFE3
:100A700001F00040704741F480114FEA5252C2F138
:100A80001802C2F1200C10FA0CF320FA02F018BF81
:100A900040F001004FEAC1234FEAD32303FA0CFCD4
:100AA00040EA0C0023FA02F34FEA4303CCE77FEA63
:100AB000625307D150EA01331EBF4FF0FE4040F4AD
:100AC0004000704701F0004040F0FE4040F400005C
:100AD000704700BF53B94AB9002908BF00281CBF9E
:100AE0004FF0FF314FF0FF3000F094B9ADF1080C3A
:100AF0006DE904CE00F006F8DDF804E0DDE902233C
:100B000004B070472DE9F0470646DDF820E00846BE
:100B1000B4460D46002B4DD18A4214466BD9B2FA29
:100B200082F242B1C2F12003954026FA03F39440C9
:100B30001D4306FA02FC260CA7B2B5FBF6F14FEAFC
:100B40001C4306FB115543EA054301FB07F098429D
:100B500009D9E31801F1FF3580F0FC80984240F29A
:100B6000F980023923441B1A1FFA8CFCB3FBF6F000
:100B700006FB10334CEA034C00FB07F363450AD92C
:100B800014EB0C0C00F1FF3580F0E680634540F279
:100B9000E380A444023840EA0140ACEB030C00219E
:100BA000BEF1000F04D02CFA02F30022CEE900328D
:100BB000BDE8F0878B4208D9BEF1000F01D0CEE925
:100BC000006100210846BDE8F087B3FA83F11746BB
:100BD00000294CD1834202D3B24200F20A81B6EB23
:100BE000070C60EB030301201D46BEF1000FDFD0B0
:100BF000CEE900C5DCE7002A00F094801A46B4FA7A
:100C000084F3002B40F0AA800B1B270CA6B2012115
:100C10004FEA1C40B3FBF7F507FB153340EA0343EB
:100C200006FB05F0984207D9E31805F1FF3802D218
:100C3000984200F2E38045461B1A1FFA8CFCB3FB76
:100C4000F7F007FB10334CEA034C06FB00F3634557
:100C500008D914EB0C0C00F1FF3602D2634500F208
:100C6000CA803046ACEB030C40EA054098E7C1F17E
:100C700020058B4022FA05FC4CEA030C00FA01F433
:100C800026FA05F3E84002FA01F923434FEA1C4231
:100C900006FA01FAB0FBF2F71FFA8CF602FB170016
:100CA0001C0C44EA004407FB06F0A0420AD91CEBE6
:100CB000040407F1FF3880F09A80A04240F2978048
:100CC000023F6444241A9BB2B4FBF2F002FB1044CE
:100CD00043EA044300FB06F69E4209D91CEB0303DA
:100CE00000F1FF3480F081809E427ED90238634457
:100CF00040EA0740A0FB09749B1BA3423E46A04666
:100D000063D360D0BEF1000F0AD0BAEB060263EBEA
:100D1000080303FA05F5CA401543CB40CEE900535A
:100D2000002145E7730843EAC1734A08190C41EAF8
:100D300002414FEAC67C9BB2B2FBF4F02646254640
:100D400027461F2243EA0143B1FBF4F15B1B41EA52
:100D500000415DE7294606E728461CE71A46C3F12D
:100D600020019C4026FA01F320FA01F19040034350
:100D7000270C06FA02FCB1FBF7F0A6B207FB101530
:100D8000190C41EA054100FB06F58D423BD961187B
:100D900001D28D4220D8491B0138B1FBF7F5A84696
:100DA00005FB06F507FB18119BB243EA0143AB4272
:100DB00027D2E31808F1FF31C8D2AB42C6D2A8F15E
:100DC00002012344C2E7BA459CD2B7EB090664EBA3
:100DD0000C040138A04695E7651B29440238B1FB95
:100DE000F7F5A84605FB06F5DCE7204680E7474611
:100DF00068E70846F9E6A444023833E7023D234495
:100E00001AE74146A2E7491BB1FBF7F5A84605FBE7
:100E100006F5C7E7704700BF4FF0FF3C06E000BF94
:100E20004FF0010C02E000BF4FF0010C4DF804CD73
:100E30004FEA410C7FEA6C5C4FEA430C18BF7FEA33
:100E40006C5C1BD001B050EA410C0CBF52EA430C61
:100E500091EA030F02BF90EA020F0020704710F1E1
:100E6000000F91EA030F58BF994208BF90422CBF70
:100E7000D8176FEAE37040F0010070474FEA410C69
:100E80007FEA6C5C02D150EA013C07D14FEA430C87
:100E90007FEA6C5CD6D152EA033CD3D05DF8040BF8
:100EA000704700BF8446104662468C46194663462A
:100EB00000E000BF01B5FFF7B7FF002848BF10F101
:100EC000000F01BD4DF808EDFFF7F4FF0CBF012046
:100ED00000205DF808FB00BF4DF808EDFFF7EAFFC2
:100EE00034BF012000205DF808FB00BF4DF808ED7D
:100EF000FFF7E0FF94BF012000205DF808FB00BF72
:100F00004DF808EDFFF7CEFF94BF012000205DF8FB
:100F100008FB00BF4DF808EDFFF7C4FF34BF012008
:100F200000205DF808FB00BF844641EA000313F08F
:100F300003036DD1403A41D351F8043B40F8043BE0
:100F400051F8043B40F8043B51F8043B40F8043BA3
:100F500051F8043B40F8043B51F8043B40F8043B93
:100F600051F8043B40F8043B51F8043B40F8043B83
:100F700051F8043B40F8043B51F8043B40F8043B73
:100F800051F8043B40F8043B51F8043B40F8043B63
:100F900051F8043B40F8043B51F8043B40F8043B53
:100FA00051F8043B40F8043B51F8043B40F8043B43
:100FB00051F8043B40F8043B403ABDD2303211D3E3
:100FC00051F8043B40F8043B51F8043B40F8043B23
:100FD00051F8043B40F8043B51F8043B40F8043B13
:100FE000103AEDD20C3205D351F8043B40F8043BE3
:100FF000043AF9D2043208D0D2071CBF11F8013BE1
:1010000000F8013B01D30B8803806046704700BFA6
:10101000082A13D38B078DD010F003038AD0C3F1B5
:101020000403D21ADB071CBF11F8013B00F8013B97
:1010300080D331F8023B20F8023B7BE7043AD9D356
:10104000013A11F8013B00F8013BF9D20B7803702B
:101050004B7843708B788370604670474FEA410C41
:101060007FEA6C5C02D150EA013C0AD14FEA430CA2
:101070007FEA6C5C02D152EA033C02D14FF00000DF
:1010800070474FF0010070472DE9F04FBC4CBD494F
:10109000ADF64C1D012370A8236003F009FBBA4D87
:1010A000284604F0C9FB002800F0F381022370A851
:1010B000236004F01AFE002800F0EB810323B348FC
:1010C000236003F0C2FEB2499022CAA8FFF72CFFAA
:1010D0009022CAA9EEA8FFF727FF802200210DF574
:1010E000EC6003F0D9FCF0A9229088226846FFF753
:1010F0001BFFDDE9EE230DF5AF6000F0D9F9002606
:10110000A02200210DF59B6003F0C6FC8022314631
:10111000AAA8CDE9276603F0BFFCAF68002F00F056
:10112000B881BB6C002B00F0B4819A493246284646
:101130009847BB6A0BB128469847042300272360D1
:1011400024976FF063084FF0FF3A04F09FFC0A22E7
:101150000023FFF7BFFCB0EB080261EB0A03642A2F
:1011600073F100030E46044689460DF5EC651ADB63
:10117000DFF8248201232B80B8F800306B802946E9
:1011800070A804F0FAFD10F47F4FADF8280208D0E3
:10119000824A136801331360B8F800300133A8F8AD
:1011A0000030A046CA46DFF8F8B170A9284604F01E
:1011B00007FEAA7922B12A797A4B002A40F0588199
:1011C000249AE31B66EB0206B3F57A7F76F10006FC
:1011D0000CDB724B74481968714B1A68714B1B8891
:1011E0009BB203F032FE2746CDF890900DF19B01A3
:1011F0006E484FF0000B012281F800B003F0BCFEF6
:10120000012840F04181AAAE4FF080092E60C5F858
:1012100004909DF89B10CDF80090334627AA0DF559
:101220009B6004F076FE00288FD09DF89E30012B45
:101230008BD1BDF8A220502A87D159465CA8CDE9B0
:10124000296203F029FCDDE929015CAA04F08BFE88
:1012500000283FF47AAFBDF8A0308AAC1BBBDDE9B3
:101260005C210A431FD10DF5896B494925939022D2
:101270005846FFF759FE25994A46204603F00CFCD4
:101280000DF58A61882268462294FFF74DFE9BE89F
:101290000C00284600F00CF94FF4F47229460DF5C5
:1012A000AF60FFF741FE5CA9204604F06BFEA0682A
:1012B000FFF756F90DF5EC63C3E90001E068FFF7AD
:1012C0004FF90DF5ED63C3E90001606CFFF748F9D4
:1012D0000DF5EE63C3E900016069FFF741F90DF513
:1012E000EF63C3E90001A069FFF73AF90DF5F06378
:1012F000C3E90001E069FFF733F90DF5F163C3E9D4
:101300000001E06BFFF72CF90DF5F263C3E9000172
:10131000A06BFFF725F90DF5F363C3E90001606ADF
:10132000FFF71EF90DF5F463C3E90001206AFFF72A
:1013300017F90DF5F563C3E90001A06CFFF710F98B
:101340000DF5F663C3E90001002400230DF5F762F3
:10135000C2E900340DF5F862C2E90034CDE92E345B
:10136000CDE93034124C0023CDE9323402A4D4E963
:1013700000341FE0AFF300807B14AE47E17A843F76
:10138000C00700200065000814650008846E00088E
:10139000D8670008E91900087E0A0020C807002065
:1013A000C40700207C0A0020ED6E000848050020DC
:1013B000000024402EAACDE900340DF5AF610DF5F3
:1013C000EC6334A804F05AFC202200213AA803F070
:1013D00063FB04F05BFB0A220023FFF77BFB4FF467
:1013E0007A72A0FB020302FB0133CDE93A03DDE987
:1013F0003401FFF71FFB2AA3D3E900233C90DDE96A
:101400003601FFF705F9FFF715FB25A3D3E9002304
:101410003D90DDE93801FFF7FBF8FFF70BFB3E904D
:101420000DF5AF6004F034FB2BAB01228DF8000109
:101430008DF8B42000933AA9DDE95C2343A84FF06E
:101440000009CDE92B9904F0C6FDBDF8A020164E89
:1014500043A94EA804F0E1FD37254EAC013D3FF411
:1014600074AE14F8011BB3680F485B689847F5E742
:101470002A78022A7FF499AE6A881A80DBF8002065
:101480000132CBF8002090E600210A2002F0A8FEED
:101490005BE64FF0FF300DF64C1DBDE8F08F00BF4E
:1014A000399D52A246DF913F1465000800000000FC
:1014B00082B0F8B5044606A981E80C000025902208
:1014C000FFF732FD40222946C4F8905004F19800FD
:1014D00003F0E2FA4022294604F1D80003F0DCFAD6
:1014E0004022294604F58C7003F0D6FA002300222E
:1014F000C4E95623C4E958232A99802204F5B4701C
:10150000FFF712FDDDE90823DDE90A67C4E92623B8
:10151000DDE90C23C4E92867C4E92A23304614A373
:10152000D3E900233946FFF7D7FCE8B110A3D3E98C
:101530000023DDE90E01FFF795F90F4B0022C4E906
:101540002E01C4E93023DDE91001DDE91223C4E9ED
:101550003601C4E94601C4E93A23C4E94A232046D6
:10156000BDE8F84002B0704732463B46E1E700BFB5
:1015700095D626E80B2E113E000014400000000016
:101580002DE9F04F934691B00C4605469A46DBE9AB
:101590000401D3E90423FEF783FE02460B46CDE99E
:1015A00004234D4B0022FFF733F8D4E9208909F1D9
:1015B000004742463B46CDE906014646FFF78CFC14
:1015C00008B9DDE9066732463B4640464946FFF723
:1015D00083FC002873D040464946DAE90A23FEF727
:1015E0005FFED4E92223FFF713F839A3D3E90023E0
:1015F000FFF738F9394B0022FEF754FE0022002392
:10160000D4E9006780468946FFF784FC002859D05A
:101610004046494603F09AF802460B4630463946A2
:10162000FEF7F6FFD4E9126732463B46804689460C
:10163000FFF752FC08B946464F46D4E914893046B4
:1016400042464B463946FFF765FC08B146464F46D1
:10165000DDE91A232146CDE900230CA853465A465A
:1016600004F010FDDDE90E01DDE90C238DE8030037
:10167000CDF808A0214608A800F01AF9DDE90823F2
:10168000C5E90223DDE90A23C5E90423DDE90421D4
:10169000C5E9006721F00043D4E91601FFF730FCEB
:1016A00048B1204604F0F7F900230022C4E956238C
:1016B0000323C4F89030284611B0BDE8F08F3046BF
:1016C00039468AE700200021A4E700BFAFF300807D
:1016D0001F85EB51B89E23400000E03F0000F03F23
:1016E0002DE9F04F85B00C4601920546D1E958230B
:1016F000DDE90E01FEF7D6FDD4E91E8942464B46D0
:1017000006460F46FFF706FC08B146464F46C4E9B9
:1017100058670022002340464946FFF7FBFB00289C
:1017200000F0AC8042464B4630463946FFF79AF807
:1017300082468B46D4E9206752465B46304639469E
:10174000FEF766FF52465B46FEF762FF5246CDE962
:1017500002015B4650465946FEF7A4FD02460B4681
:1017600000204F49FEF79CFD02460B46DDE90201D1
:10177000FEF74EFF0022CDE9020100234046494614
:10178000FFF7C8FB00287ED0464B00223046394682
:10179000FEF73EFF52465B46FEF73AFF52460646CC
:1017A0000F465B4640490020FEF77AFD02460B4695
:1017B00030463946FEF72CFF42464B46FFF752F8BB
:1017C00006460F46019BDDE90201D3E90A23FEF735
:1017D00067FDD4E92223FEF71BFF32463B46FEF7A6
:1017E00061FD2DA3D3E90023FFF73CF82E4B002227
:1017F000FEF758FD00220023D4E9008906460F4673
:10180000FFF788FB002841D03046394602F09EFFA2
:1018100002460B4640464946FEF7FAFED4E91289D5
:1018200042464B4606460F46FFF756FB08B1464672
:101830004F46D4E9148932463B4640464946FFF7B5
:101840004BFB08B146464F46174B002250465946BF
:10185000FFF756FB30B100220023C4E9582320468D
:1018600004F02FF9002300242846C5E90067C5E9E4
:101870000234C5E9043405B0BDE8F08FDFF828B0C4
:101880004FF0000A56E7002600279BE700200021C2
:10189000BCE700BFAFF300801F85EB51B89E23402B
:1018A00000000840000018400000F03F0000000069
:1018B00082B02DE9F84FCDE90A23DDE90A67D1E9C5
:1018C0000E8941A3D3E900230E9D394604463046D4
:1018D000FEF79EFE404B0022FEF7C4FFD5E90C2325
:1018E000FEF7DEFC3AA3D3E90023FEF7BBFF424636
:1018F0004B46FEF78DFE32463B46DDE90CABFEF76C
:10190000D1FC31A3D3E9002306460F465046594681
:10191000FEF77EFE304B0022FEF7A4FFD5E90E2332
:10192000FEF7BEFC2AA3D3E90023FEF79BFF424645
:101930004B46FEF76DFE52465B46FEF7B3FC274B67
:101940000022FEF765FE02460B4682468B46304675
:101950003946FEF7A7FC224B002280468946FFF756
:10196000D9FA18B1DFF878904FF000081D4B00222B
:1019700040464946FFF7CEFA18B9DFF868904FF0B5
:10198000000852465B4630463946C4E90089FEF7F6
:1019900087FC134B002206460F46FFF7BBFA08B13F
:1019A0000F4F00260F4B002230463946FFF7B2FAA0
:1019B00008B90C4F0026C4E902672046BDE8F84F7D
:1019C00002B07047AFF30080182D4454FB2109404A
:1019D0007B14AE47E17A843F008066400000E03F20
:1019E00000003E4000003EC010B590B004464022CA
:1019F0000021684603F050F8A3685B6CA3B9A368A4
:101A00001B6CBBB9A3685B6BCBB9A3689B69002B4C
:101A1000F2D04022694620469847021EECDD694616
:101A2000094803F05AFAE7E7204698470028E6D12C
:101A300010B010BD204698470028E3D1F8E72046B3
:101A400098470028D8D0E0E748050020014B1B68E4
:101A5000184700BF68050020014B1860704700BFA1
:101A60006805002007B50B46002102460091024898
:101A700000F04EF803B000BD4D1A00082DE9F04704
:101A800014469A46D378214A12F803906F2B804669
:101A90000E4609F003092AD025D8582B14BF0A2571
:101AA0001025089F2A46002340463146FFF712F8CA
:101AB000092A07F1FF3713461BD83033A84576F1C2
:101AC00000063B7003D3574580460E46EAD823787C
:101AD0009B0605D5082D12D1A37843F00803A37007
:101AE0003846BDE8F08703F0F703702BD6E70825EA
:101AF000D7E7B9F1010F0CBF37335733DEE7102DAD
:101B0000EED1A37843F01003E9E700BF7D6D000834
:101B10002DE9F04F95B08B46029091461C4600256A
:101B200099F8000008B928465DE225280CD0029BF0
:101B3000594698470028C0F2568209F10103013541
:101B40000493DDF81090EBE7182200210EA802F0B4
:101B5000A3FF99F801A0BAF1250F00F0B080002191
:101B600009F101028E468C460F460E4613782B2B48
:101B7000104600F0DA8000F2D180202B00F0D880EF
:101B8000232B00F0D88029B19DF8401041F040018E
:101B90008DF84010BEF1000F05D09DF8401041F0C7
:101BA00020018DF84010BCF1000F05D09DF84010C9
:101BB00041F010018DF840102FB19DF8401041F018
:101BC00008018DF840102EB19DF8401041F004013D
:101BD0008DF840109DF8401001F04406442E03D1CA
:101BE00021F040018DF840109DF840102A2B41F063
:101BF00080018DF8401040F0BB80531C9DF84120BF
:101C000042F001028DF8412000271A782E2A9DF813
:101C100041200CBF0121002161F341028DF84120D8
:101C200040F0B08059782A2900F0A780C14E5A1C94
:101C30004FF000084FF00A0C1178705C4007134613
:101C400000F1A3809DF84020C2F3400141EAD87121
:101C500061F341028DF840201A786C2A00F0B780B9
:101C600000F29980682A00F09F806A2A00F0B8800C
:101C70004C2A00F0BD8013F801AB0493BAF1780F41
:101C800015D8BAF16D0F9DF8412000F2BE80BAF16F
:101C9000690F0CD8BAF1570F00F2D480BAF1410F96
:101CA00000F00681AAF14502022A40F201819DF866
:101CB000402042F001028DF840200022ECE009F1C2
:101CC00002034FF00008049347469DF84120D007D7
:101CD00040F1048154F8047B002F06DA9DF840108F
:101CE00041F004018DF840107F42510740F1FD8022
:101CF00054F8042B42EAE2789DF842109DF8412006
:101D000001F007010139C2F3C302032900F219816E
:101D1000DFE811F0F1002C015D0153012D2B0DD0F6
:101D2000302B7FF430AF012100E0012701321DE7A5
:101D30004FF0010CFAE74FF0010EF7E70126F5E747
:101D40000CFB01E10132303992F800E016F80E7018
:101D500017F004071346F3D190423FF456AF9DF8B5
:101D600040200F46C90F61F341028DF840204CE737
:101D7000704E00214FF00A0CE6E742F004028DF8A5
:101D8000412002334FF0000866E70CFB08180132CF
:101D9000A8F1300850E7742A26D07A2A7FF46BAF76
:101DA0009DF8412006210CE05A78682A9DF84120D0
:101DB00006D1012161F3C6028DF8412002335AE7B2
:101DC000022161F3C6028DF84120013353E75A78AE
:101DD0006C2A9DF8412001D10421EBE70321F0E7B3
:101DE0009DF841200521ECE79DF841200721E8E717
:101DF000BDF8402022F4F04222F0020242F4804278
:101E000042F00202ADF84020DFE7AAF16E00C0B256
:101E10000121814040F28240014224D111F0240F7F
:101E20004FD1CB077FF543AF9DF8421002F0780207
:101E3000A2F14006032060F3020172428DF84210C5
:101E4000724129E0AAF15801C9B2012000FA01F15A
:101E500011F4624F2CD111F4043F27D140F6010058
:101E600001423FF424AF02219DF8420002F07802C3
:101E7000402A61F3020008BF9DF840108DF842002F
:101E800004BF41F001018DF84010003A18BF012253
:101E9000BAF1630F18BF00229DF84010C1F3400053
:101EA000024362F341018DF840100EE70146DBE783
:101EB0009DF84220042161F302028DF842200122A4
:101EC000EAE79DF84210032012F0780F60F3020158
:101ED0008DF8421014BF01220022DDE79DF9401069
:101EE0000029A8BF4FF0FF37FFE612F0020F08BF2E
:101EF0004FF0FF3800E7D11E042904D8DFE801F0D5
:101F0000160C0C161600012A54F8041B14D0022AD1
:101F100028D00846C91712E0E01D20F0070004464B
:101F2000406854F8081BCDE90E100AE054F8041B71
:101F3000C817F8E77D6D000848B241F3C011CDE93C
:101F40000E019DF8401011F003064FD04E46049A42
:101F5000B24233463FD8A6EB0906002E304642DB9C
:101F60003544EEE508B241F3C031E8E7D11E04295B
:101F700004D8DFE801F00B12121A1A00012A54F8F3
:101F8000041B17D0022A16D189B214E02668211D3D
:101F90000020CDE90E600C46D3E7073424F0070497
:101FA0002146606851F8086BF3E72146002051F89C
:101FB000046BEEE7C9B20020B5E7E11D21F007018F
:101FC00001F10804D1E90001CDE90E01B9E754F8A7
:101FD000041B0E91B5E71878029B594698470028D4
:101FE00006F10106B3DA15B0BDE8F08FBAF1780F4B
:101FF0003FF6A7ADBAF1620F18D8BAF1250F49D054
:10200000BAF1580F7FF49DAD0DF13603009310AA7D
:1020100008ABDDE90E018DF843A0FFF72FFD119B02
:102020009DF843A0129A0393814696E0AAF16300BB
:1020300015283FF686AD01A656F820F08B21000842
:10204000A5210008431B0008431B0008431B000890
:10205000431B0008A5210008431B0008431B000880
:10206000431B0008431B0008D1210008CD210008B4
:1020700025210008431B0008431B0008A520000879
:10208000431B0008CD210008431B0008431B000828
:10209000CD210008029B5946504698470028A2DBF4
:1020A00001354EE5B8F1000FDDF8389036DB4146DA
:1020B000484602F035FDB9F1000F3FF442AD00266D
:1020C00009EB00030593324603969DF8421011F088
:1020D0001003069300F09A800230039B18444B06CD
:1020E00048BF8018002F40F3A6809DF8408018F06C
:1020F000040FA7EB000740F09E8018F0400F00F09F
:10210000BE804EB1029B5946304698470028FFF6E4
:102110006AAF0135C8F380063022B1E04846FEF7C9
:102120004FF8CCE70E98002866D070238DF8433026
:102130000DF13603009310AA08AB0021FFF79EFCB7
:10214000119B03939DF84230129A43F0100381468D
:102150008DF8423000264FF0780A0DF13600B8F1C4
:10216000000FA0EB09000ADB9DF84010804521F02C
:1021700040018DF8401002D9A8EB0003039306B18B
:1021800001300DF1360305939FE70E9A8DF820205C
:1021900000260DF12103324603960DF12009059327
:1021A000012092E70A075EBFC1F300114901CEB2D8
:1021B000DDE90E1248BF2B26002ABFF625AF4942A3
:1021C00062EB4202CDE90E122D261DE700261BE729
:1021D0000E9B072A3FF6B5ACDFE802F00C04060CB4
:1021E00008080C0C1D70ACE41D80AAE4EA17C3E9D2
:1021F0000052A6E41D60A4E4DFF8E490039009F126
:10220000050306460246059305205EE70B0748BF17
:10221000013062E710460792029B59469847002812
:10222000079AFFF6E0AE4146002908F1FF38F1DCDD
:102230003D446D1A47463EB1029B59463046984789
:102240000028FFF6D0AE01359DF84220D10601D41A
:10225000130707D5029B5946302098470028FFF600
:10226000C2AE0135069B3BB1029B5946504698478A
:102270000028FFF6B8AE0135039E2E440AE0202266
:10228000B846D0E7029B5946302098470028FFF611
:10229000AAAE0135731B002BF4DC4E46059AB24200
:1022A000334614D8A6EB0906002E3046FFF69BAE47
:1022B00035442F447B1B002B7FF743AC029B5946D0
:1022C000202098470028FFF68EAE0135F2E71878F7
:1022D000029B59469847002806F10106DEDA82E69D
:1022E0002F6F0008034A536823F002035360002055
:1022F000704700BF002004E0084B1A6842F40072E7
:102300001A601A6842F480621A601A6842F4807295
:102310001A60034B034A1A600020704700200240F5
:10232000B805002000093D00014B03600020704704
:10233000806A000830BFFFF7FDBF00BF074A9368FF
:1023400093F90E10002907DB526993421FBF044A1C
:10235000536843F080535360704700BFE408002087
:1023600000ED00E038B5264B15469A6A12F0100FC2
:102370009A6A14BF1124102412F0080F9A6A18BF29
:10238000122492070AD55A6B9C6A240635D519B1D6
:10239000996A21F080019962132401E06FF015021F
:1023A000174B996A11F0010F996A18BF142411F0A4
:1023B000200F996A18BF1524C90602D49B6A9B078F
:1023C0000BD50F4B5B68190507D50146104600F089
:1023D00011FA10B180F309880224094B9A6A920617
:1023E00042BF596A21F400515962996A41F0FF01D4
:1023F000996200232B70204638BD6FF01502CBE7A1
:1024000000ED00E0134B9A6A12F0007F9A6A14BF45
:102410001E201D2012F0807F9A6A18BF1F2012F420
:10242000002F9A6A18BF212012F4802F9A6A18BFD1
:10243000222012F4003F9A6A18BF232012F4803F32
:102440009A6A6FEA02426FEA12429A6218BF242027
:10245000704700BF00ED00E010B5194A936A946A16
:1024600013F4805F14BF1723162314F4006F946ACB
:1024700018BF1823A40509D5936B936A1C0404D5CF
:1024800018B1936A23F40043936219230C4A906AAB
:1024900010F4806F906A18BF1A23C0050DD4926A99
:1024A00012F4005F18BF1C230548826A42F47F4281
:1024B000826200220A70184610BD1B23F4E700BF99
:1024C00000ED00E0F0B5484B5B688BB0C3F3080348
:1024D000002686F31188BFF36F8F02F07F44B4F1BA
:1024E0007F4F13D114070ED512F004050FD00C4600
:1024F00035460022033B8DF80720032B09D8DFE87F
:1025000003F028676B6404460125F2E735462C4644
:10251000EFE700239DF80720CAB902AE04F12007B7
:1025200020686168324603C20834BC421646F7D1BF
:10253000099A002D54D0C2F3080121B96FEA522242
:102540006FEA4222099202A9184602F036FD0BB04A
:10255000F0BD254BDA6A9107DBD4DA6A002AD8DBB2
:10256000DA6A5200D5D55A69A16942F480725A617B
:10257000BFF34F8FBFF36F8F5A6931F8021C22F4FB
:1025800080725A61BFF34F8FBFF36F8F4DF60272A7
:10259000914201D12368BDE79A6AD2B23AB10DF1F6
:1025A000070201212046FFF7DDFE0346B2E79A6AE3
:1025B00012F47F4F05D00DF107010120FFF74CFF0A
:1025C000F3E79B6AB3F5803FA3D3FFF71BFFECE76C
:1025D0000DF107020021E5E70DF107010020EDE70D
:1025E0006FF30802AEE700BF00ED00E0024A536956
:1025F00043F010035361704700ED00E0EFF30880F3
:10260000EFF3098101B57246FFF75CFF01BD00BF22
:10261000102080F3118808484FF40461401880F3BB
:102620000988EFF314800221084380F31488BFF374
:102630006F8F00F09FF80000C00A0020084B9B68D5
:1026400083420BD1EFF3058343B1064B5A6842F046
:1026500080525A605A6A22F400425A6203F0DBB98F
:10266000E408002000ED00E0094A93686FF00A01D9
:102670009967084958674B6843F080534B600023C3
:1026800083F31188BFF36F8F9368986F704700BF13
:10269000E408002000ED00E010B50446EFF31183DC
:1026A000102383F31288BFF36F8F094B586998602A
:1026B000084B4FF000625A600022436F426783F379
:1026C0001188BFF36F8F00F0EDF8204610BD00BFFA
:1026D000E408002000ED00E00B498A684FF030006C
:1026E0001044EFF3098C80E8F01F74467046FFF742
:1026F000D3FFA64604498A6802F1300090E8F01F33
:102700008CF3098870470000E40800201EF0040FD5
:102710000CBFEFF30880EFF30980816911F8021C08
:102720000229FFD001B502F04EFC01BD40B20028E5
:1027300007DB044A4109012300F01F00834042F8EF
:102740002130704700E100E040B20028ACBF00F14A
:102750006040074B01F10101ACBF00F5614000F0A2
:102760000F004FEA0111B4BF195480F800137047ED
:1027700014ED00E00F4A08B50F4B22F07F029A607B
:10278000BFF34F8FBFF36F8FD3F8882022F470020E
:10279000C3F88820EFF3148323F0040383F3148831
:1027A000BFF36F8F01F0E2F801F0C4FD02F02EFCE0
:1027B00001F020F90000000800ED00E042F8203CA4
:1027C000009B42F81C3C0A49019B42F8183C029BC2
:1027D00042F8143C21F001014FF0807342F8043CB0
:1027E00042F8081C0023203A02654367704700BF87
:1027F000654E0008094B0246986870B112F1160F39
:10280000406E05D0A0F14003934205D8824203D226
:10281000814228BF0020704700207047E408002054
:1028200008B50B4B0E461546986000F03BF82C4659
:1028300086F309884FF00000064B984720464FF07A
:1028400000014FF000024FF00003034C204700BF8F
:10285000E4080020E54F0008654E0008014B1022F7
:102860001A61704700ED00E008B5EFF30583064AF2
:10287000103B02EBC30152F8330049688847BDE8BA
:102880000840FFF75BBD00BF3C650008024B034AF0
:102890000348012100F074B80080012000000020EE
:1028A000806A0008436E054A403B1360044B402198
:1028B000C2E901131046012100F06CB8CC070020DA
:1028C00000000B15084AC2F898000B6823F01F039C
:1028D000034343F01003C2F89C308B6843F00103BC
:1028E000C2F8A030704700BF00ED00E02DE9FF41C5
:1028F000174E0D461F4604464FF00008A84523DA40
:102900006068D8B13FB1411E08421BD11F2819D9B8
:102910002368194216D12368019302F083FBA36850
:1029200003430393D6F89030C3F30723D0B2013B9F
:10293000984207D801A9FFF7C5FF421C08F101081A
:102940000C34DBE76FF01502104604B0BDE8F081EF
:1029500000ED00E0044B0522C3F89420BFF34F8F35
:10296000BFF36F8F704700BF00ED00E0BFF35F8FD4
:10297000024B0022C3F89420704700BF00ED00E036
:1029800010B5034C01232278FFF7B0FF207010BD73
:10299000800A002008B50B4A00231278FFF7A6FF33
:1029A00010F1160F07D0084A0021D2F89030C3F377
:1029B0000723984200DB08BDC2F89800C2F8A010B7
:1029C0000130F2E7800A002000ED00E0F0B5534B43
:1029D000534CD3F890302568C3F307239D4285B04C
:1029E00000F29880FFF7C2FF00200C26854216D126
:1029F0004C4C4A4F25706846FFF796FC002506466A
:102A0000AE4213D1237845490020D1F89020C2F37B
:102A10000722934278DBFFF79DFF002043E06168C7
:102A200006FB0011FFF74EFF0130DFE7009800EBD7
:102A300005114FEA051CCB686FF31303B3F5000FC4
:102A400049D00AD8B3F5001F2FD0B3F5800F37D087
:102A5000B3F5801F10D00135D2E7B3F1807F43D0AA
:102A6000B3F1007FF7D150F80C3088684A6802F063
:102A7000D9FA40F4802009E050F80C3088684A68A0
:102A800002F0D0FA40F0885040F43020CDE9012324
:102A90000390D7F890302078C3F30723013B984286
:102AA0002BD96FF0150005B0F0BD50F80C308868D8
:102AB0004A6802F0B7FA40F0885040F40020E5E799
:102AC00050F80C3088684A6802F0ACFA40F0E060D8
:102AD00040F40030DAE750F80C3088684A6802F0B9
:102AE000A1FA40F08270D1E750F80C3088684A684B
:102AF00002F098FA40F08870C8E701A9FFF7E2FEFB
:102B0000237801332370A6E7C1F89830C1F8A000FC
:102B100001337AE74FF0FF30C5E700BF00ED00E07A
:102B20008C6A0008800A0020014B1860704700BFC3
:102B30006C05002010B5074C2368C2180648C0F188
:102B4000005101F5C0318A423ABF2260C0184FF0EF
:102B5000FF3010BDD8070020C03500202DE9F0411E
:102B60000F4E104F054600244FF001086A78E3B27B
:102B70009A4201D2BDE8F081287818441F280DDC64
:102B8000726908FA00F333EA020207D1736157F859
:102B900030301BB107EBC002516898470134E5E7BC
:102BA00000040140DC070020044B184400230133DB
:102BB0008B4200F8012BFADB704700BFD0050020E4
:102BC00010B4064B064A01461468185601238B4080
:102BD0002343136010BCFFF7A9BD00BFD005002040
:102BE000000401401F2806DC034901220B688240D3
:102BF00023EA02030B6070470004014003292AD82E
:102C0000DFE801F0020E141F134B01229968824085
:102C100021EA02019960D96821EA0202DA6070476C
:102C20000D4B0122996882401143F3E70A4B0122C0
:102C3000D96882401143D960996821EA02029A60FA
:102C40007047012303FA00F0034B9A6802439A602D
:102C5000DA681043D86070470004014030B50A4B71
:102C600053F830408C4204D103EBC0056D689542A7
:102C700005D034B943F8301003EBC0035A6000208C
:102C800030BD6FF00F00FBE7DC070020034B002294
:102C900043F8302003EBC0035A607047DC07002084
:102CA000024B1868C0F38020704700BF001002403C
:102CB00010B50B68072B144618D01A4A0A2B126855
:102CC0000AD89BB1013B092B10D8DFE803F016208E
:102CD00024270F290F0F0F19582B0ED009D8502B6E
:102CE0000BD003D823F00403482B06D06FF08500E7
:102CF00005E05C2B01D0602BF7E72260002010BDBF
:102D000000F0B0F81423584380082060F6E74FF431
:102D100000432360F2E74FF4FA43FAE7024BF8E787
:102D20000023F6E7B80500200024F400F8B5484F6A
:102D3000484C00F0ADF8384602F056FA00F0E8FCD6
:102D4000A368454AC3F303131578D35C47FA05F526
:102D500020FA03F6AE4202D2284600F023FDFFF728
:102D60009FFF012807D0236843F480732360FFF797
:102D700097FF0128FBD1D4F8943043F00103C4F845
:102D80009430D4F894309807FBD5344B1A6842F449
:102D900080721A601A68D105FCD5D4F8903043F0DF
:102DA0000103C4F89030D4F890309A07FBD52B4A31
:102DB000136823F480731360A36803F00C030C2BD7
:102DC0001AD1FFF76DFF012807D0236843F4807301
:102DD0002360FFF765FF0128FBD1A36823F00303FD
:102DE00043F00103A360A36803F00C03042BFAD1A2
:102DF000A36823F0F003A360236823F080732360AB
:102E000000F034F8236843F08073236023689B014B
:102E1000FCD5A36823F0F003A360A36843F0030389
:102E2000A360A36803F00C030C2BFAD1AE4202D3CB
:102E3000284600F0B7FC0A4B1F60A36823F4E06348
:102E4000A360A36823F46053A3600020F8BD00BF13
:102E500000B4C404001002405B7000080070004021
:102E6000B8050020004870470024F400054B0649CF
:102E7000DA681140054A0A43DA60DA6842F0807283
:102E8000DA607047001002408C80FFF902140002E3
:102E9000064B9A6D42F0805282B09A659B6D03F0AA
:102EA00080530193019B02B0704700BF00100240A5
:102EB00008B5074802F0C0FC38B10648FFF734FEF9
:102EC0000448FEF7C9FD002008BD6FF01200FBE7C3
:102ED00014650008D92E00080A2838B5074D0446A5
:102EE00004D1AB680D215B6828469847AB6803485E
:102EF0005B68E1B29847204638BD00BF1465000802
:102F000038B50369054658600A4C204602F094FC27
:102F100068B1094A536843F4007353606968A36851
:102F20000C311B682046984700EAE07038BD6FF00E
:102F30001200FBE7246400080070004073B5B2F58E
:102F4000001F45680C461E4624D101F003020432DE
:102F500092000F23934043EA9103DAB234490232DC
:102F600051F82220190C02EA134391FAA1F2B2FAA5
:102F700082F2D340AA689A4209D12046FFF732FE76
:102F80002046FFF783FE00212046FFF737FE002092
:102F900002B070BDB2F5800F41D0026925492046CC
:102FA000FFF75CFE00283DD1B6F1806F33D0B6F15B
:102FB000C06F32D0B6F1007F37D102261E4BAD680C
:102FC00093E803008DE803001C48836869461B688A
:102FD0009847C0B904F0030304339B000F229A40C2
:102FE00042EA9402D3B29B0003F1804303F580339D
:102FF000110C986820EA124091FAA1F2B2FA82F21A
:10300000954005439D6020463146FFF7F7FD204679
:10301000FFF7D6FDBBE70126D0E70326CEE76FF02A
:103020008500B5E76FF00F00B2E76FF01500AFE76E
:103030000000014005540008686800082464000886
:103040002DE9F0471E4F044600EBC1060025B442AF
:1030500001D1002014E02068C30600F01F0911D43C
:10306000656845F02005C0F3481AC0F344200F28D6
:1030700023D857F82080B8F1000F0DD16FF012005F
:10308000BDE8F087B9F1100F04D0B9F1110FEAD102
:103090006568E8E73025E6E7404602F0CDFB00280A
:1030A000ECD04B462A460AF00F01404602F0C1F927
:1030B000002804F10804CADAE2E76FF01500DFE740
:1030C0008C6B000843681B6803F1080252E8002F6C
:1030D00042F0010203F1080040E800210029F3D189
:1030E0000F4A93420FD0A2F5744293420BD002F5DF
:1030F0008062934207D002F58062934203D002F5CA
:103100008062934203D15A6842F040025A6053E809
:10311000002F42F4807243E800210029F7D1704764
:103120000038014043681B6803F1080252E8002F91
:1031300022F0010203F1080040E800210029F3D148
:103140000F4A93420FD0A2F5744293420BD002F57E
:103150008062934207D002F58062934203D002F569
:103160008062934203D15A6822F040025A6053E8C9
:10317000002F22F4807243E800210029F7D1704724
:10318000003801402DE9F04103690D465C682B7958
:103190004168012B16D09A1E56425641B6026A79F2
:1031A000022A9CBF474F37F81270AA7988BF4FF4A4
:1031B0000057022A09D0042A2FD0003B18BF012350
:1031C0001B0306E04FF4C066E9E7B3FA83F35B093B
:1031D0001B07EA790968012A0CBF4FF4407C4FF0C5
:1031E000000CAC421CD10A6822F0805222F4B0528A
:1031F00032431A430A604B6823F440533B434B600D
:1032000043681A68936823F4407343EA0C0393609D
:103210002168BDE8F04102F06CB94FF48053D8E763
:10322000A2F10308D8F1000E4EEB080ED1F8008091
:1032300008F4C06846451FBFD1F8008028F4C06874
:1032400048EA06060E6041680E68716801F4405154
:103250008F421FBF716821F440513943716041684A
:103260000E68316801F010218B421FBF316821F0D8
:1032700010210B433360436819688B6803F4407373
:103280009C451FBF8B6823F4407343EA0C038B609B
:1032900043681B689968C1F38031714507D0032AE0
:1032A0009A680CBF42F4804222F480429A602968F6
:1032B0002368994203D002F01CF92B682360BDE813
:1032C000F08100BF7E6E00082DE9F3410469476874
:1032D00006464E48206002F0AFFA20B96FF01200A7
:1032E00002B0BDE8F0812068F96883681B689847E0
:1032F0000028F5DB386A01AA002102F0AFF80028A7
:10330000EEDB019B002219791868FFF799FE00286F
:10331000E6DB756833692C68D3F80480236823F0F2
:1033200001032360686802F087FA0028D6D0D5E947
:1033300001018368DB6803B1984754E8003F43F01C
:103340000C0344E80032002AF7D141463046FFF72B
:1033500019FF2B7D1BB1A36843F00803A3606B7DAD
:103360001BB1636843F400436360AB7D1BB16368CA
:1033700043F480336360EB7D1BB1636843F4003337
:1033800063602B7E83B3224B9C4213D0A3F574431E
:103390009C420FD003F580639C420BD003F5806301
:1033A0009C4207D003F580639C4203D003F5405351
:1033B0009C4228D173681A68936843F480439360F1
:1033C00023686A7E23F0787343EA425323602368BC
:1033D000AA7E23F4F81343EA02432360EB7E1BB179
:1033E000A36843F40043A360236843F00103236010
:1033F000E3699A02FCD5E3695B02FCD530467B6A3F
:10340000984700206CE76FF0150069E72464000816
:1034100000380140F8B50B79012B06460D4616D051
:103420009A1E5142514189026F79022F9CBF364A40
:1034300032F81740AA7988BF4FF40054022A09D005
:10344000042A01D0002B3CD04FF4805004E04FF40C
:10345000C061E9E75BB10020A3F1030CBCF1010FEF
:1034600002D933B1042A04D16FF0850028E04FF06F
:103470008050B4F5805F26D0B4F5405F25D0002C95
:103480000CBF012303239F42EED102F04EF882428B
:10349000EAD173681C68EB79CBB933695F6823683C
:1034A00023F00103236029463046FFF76BFE2368B3
:1034B00043F00103236095E8030087E80300002040
:1034C000F8BD1846D5E70023DDE70223DBE7012B33
:1034D00017D10E4B9C42E0D0A3F574439C42DCD044
:1034E00003F580639C42D8D003F580639C42D4D01E
:1034F00003F580639C42D0D003F540539C42CCD06E
:10350000B2E7032BE5D0AFE77E6E0008003801403C
:103510004FF0E0230D4A9969126818699B690029E8
:1035200008BF1146002B08BF134610F4803F08481F
:1035300001D1994205D20168114401604FF0E021A8
:10354000096900681044C01A704700BFE0080020F5
:10355000DC0800200A4B102283F82320094B4FF48B
:10356000FA521A60084B002018604FF0E02341F631
:103570003F725A6198611A6942F007021A617047F6
:1035800000ED00E0E0080020DC08002010B5FFF7A7
:10359000BFFF104B1049D3E900420868001942F1FF
:1035A0000002C3E900020D4A00230B60D2E900418A
:1035B0004FF4FA53001BB0FBF3F043431B1941F1E6
:1035C0000001C2E9003100F089FFBDE81040FEF7BC
:1035D000B5BE00BF18060020DC0800201006002041
:1035E0002DE9F041364E89B1421C0AD14FF0E0225C
:1035F000136923F0010313614FF07F433360BDE88B
:10360000F0813568012806DC00240AE0431C356897
:10361000F8D14FF4036040F631039842A8BF184632
:10362000441EEFF31187102383F31288BFF36F8FCB
:10363000FFF76EFF23494FF0E023D3F818C0D1E91C
:103640000023801843F10003C1E900031E4B002250
:103650001A601E4B1A68831A2DD44FF4FA5E41F695
:103660003F7814FB0E841C44131AB4FBFEF40EFBCB
:103670000433B3F5806F164A38BF4FF4806393422A
:1036800028BF13464FF0E02233609469013B536139
:1036900000239361A445D1E90032ACEB04000DD2C4
:1036A0000544EB1842F10002C1E9003287F31188AA
:1036B000BFF36F8FA3E74FF48063E3E7C318F1E72D
:1036C000E008002018060020DC080020100600207A
:1036D00000DCFF0038B5EFF31185102383F3128867
:1036E000BFF36F8F084B1C68084B1B68E41AFFF789
:1036F0000FFF85F31188BFF36F8F4FF4FA53204407
:10370000B0FBF3F038BD00BF180600201006002003
:10371000204B9A68D96812F00C0205D00C2A2CD1E3
:1037200001F0030101292FD119681B48090755BF72
:10373000D3F894101968C1F30321C1F3031150F8B1
:10374000210032B3DA6802F00302022A1ED01349C4
:10375000032A08BF0846D968DA68C2F30622424342
:10376000D868C0F34160C1F302110130013140005B
:10377000B2FBF1F2B2FBF0F07047042A08D0082A3D
:10378000064818BF002070470020DBE70448E2E746
:1037900003487047001002401C6D000800127A00B8
:1037A0000024F400204B421E9A423AD81F4B1B685B
:1037B00003F4C063B3F5007F0FD11D4B98421AD8B4
:1037C0001C4B984229D81C4B984228D81B4B984236
:1037D00094BF00230123002011E0194B98420CD81C
:1037E000A3F5F403A3F59053984216D8154B9842CD
:1037F00015D8154BEBE70423EDE70023012013490F
:103800000A6822F007021A430A600A6802F00702F7
:103810009A4218BF40F0010070470323DBE7022300
:10382000D9E70120704700BFFFB3C4040070004017
:103830000090D003006CDC020048E8010024F40092
:1038400080BA8C01001BB700808D5B000020024015
:10385000014B986860307047E408002038B5EFF3FA
:103860001185102383F31288BFF36F8F064B9C687A
:1038700001F0F5FF85F31188BFF36F8F2046BDE897
:103880003840FEF7DBBE00BFE408002038B5094B26
:1038900053F82040013053F82050A54200D838BDDD
:1038A000636823B1204601F0DDFF0834F5E72368A3
:1038B0009847FAE74C6D000870B5274B274C284D08
:1038C00086B0012203201A70FFF7E0FF00F084FEAB
:1038D00001F0E4FF0420FFF7D9FFAC4226460FD3E6
:1038E00000F0C2FB1D4CAC4221D300F0D1FBFDF730
:1038F000CBFB1C4A137B23F00103137306B070BD8E
:10390000636A0593236A0493E3690393A3690293AB
:103910006369019323690093303454E90A2354E91D
:103920000C0100F09FF954F8303C5E65D5E7D4E90E
:103930000A23B3F1FF3F08BFB2F1FF3F05D052EABF
:103940000301206803D101F0C3FF3034CBE70649FF
:10395000183000F04DFDF8E7810A0020CC67000820
:10396000CC670008A0060020D959000808B5034814
:10397000034A0021121A01F08DFF08BD1006002035
:10398000880A002070B5002386B00122CDE9042307
:10399000134D144C01930F22CDE902321249142326
:1039A00003FB004405EBC01506464FF4C07000FB56
:1039B00006110E4B00944FF4A072284600F052F905
:1039C0006B7B0B4AE56023F004036B734FF40463D5
:1039D00006FB033313442674636006B070BD00BF5A
:1039E00020060020E408002000130020AB58000847
:1039F000C00A00207FB50020FFF748FF2A4B83F361
:103A000008882A4D2A4E6B6943F400736B610024C9
:103A1000F02385F82230EC772C766C76AC7685F83E
:103A200020406B6A43F4E0236B62FEF7DFFDFEF794
:103A300015FF4FF0FF33AB62EB62FEF7C7FFFEF7F7
:103A400025FF1C4BB36040F201129A81C3E919446F
:103A50001C6701F0F0FE0120FFF718FF0220164D51
:103A6000FFF714FF00F034FB144B7561059301233D
:103A7000134900944FF40052CDE90343CDE90144CA
:103A8000104B284600F0EEF86B7B064623F004034B
:103A900028466B7301F056FF2046FFF773FF094A73
:103AA00031462846FEF7BCFE0013002000ED00E082
:103AB000E408002020070020A00600202070000855
:103AC00080140020B938000838B5054C256804EB8F
:103AD000850405B938BD54F80439013D9847F8E725
:103AE000CC67000838B5044C044DAC4200D338BD57
:103AF00054F8043B9847F8E7D8670008D8670008EF
:103B00002DE9F341044617469846EFF3118610233A
:103B100083F31288BFF36F8F324BC568996875B114
:103B20008068884217D052EA080316D186F31188BC
:103B3000BFF36F8F6FF00F0002B0BDE8F08191F915
:103B40000E3023610135C4E9021586F31188BFF3F5
:103B50006F8F0020F0E72369F3E791F90E1090F9D9
:103B60000E309942A8BF19466FF07E029142B8BF4D
:103B700011468B422DDD01F0A3FE0546CDE900780C
:103B800019482246314600F0BBF90028E1D0EFF396
:103B90001186102383F31288BFF36F8FA068D0B112
:103BA000236821699C420AD04BB193F90E309942A7
:103BB000A8BF19466FF07E039942B8BF194601F0BD
:103BC0007FFE40B10848314600F00AFA6FF00A0063
:103BD000B2E70025D2E7002DF4D186F31188BFF3B8
:103BE0006F8FF3E7E4080020820A002038B583686D
:103BF000044663B3194A926893422BD1C368012BE0
:103C000003D9013BC360002038BDEFF311851023B9
:103C100083F31288BFF36F8F0169806801F050FE53
:103C2000204601F0DDFEA06058B190F90E2022611F
:103C30000022826701F086FE0948294600F0D0F98B
:103C4000E1E7E06085F31188BFF36F8FDBE76FF08A
:103C50001500D9E74FF0FF30D6E700BFE408002099
:103C6000820A0020F0B5073285B022F00702044630
:103C70007F320E9D0D9E2573583022F03F02C4E91D
:103C80001600042500203F2AA673C4E90600A060A0
:103C90006573E07301F14007A2F1400605D880F397
:103CA0001188BFF36F8F284602DFC4E919768D189B
:103CB00000260C9AE66602920B9A01920A9A0092EA
:103CC00020462A46FEF77AFD044B66659B6803B1E1
:103CD0001B6F2367284605B0F0BD00BFE408002035
:103CE00038B50D4D2B4653F8184F9C4200D004B9FF
:103CF000EC68AB6838B95A7BD20604D1A26912B914
:103D0000DA897F2A05D89C4202D0204600F0BAFA10
:103D100023466B6138BD00BFE408002008B590F968
:103D20000D20437B002A014604DA03F07F0343732E
:103D300001F0D0FD044B9868431A58425841BDE841
:103D40000840FFF7CDBF00BFE408002070B4437BFC
:103D500013F09F0F26D1826922BB134A63F07F03C1
:103D60001446437354F8183FA34219D1D169C0E9EE
:103D700000410860D0610FE08B42F8D01B68002B37
:103D8000F5D093F90E6090F90E50AE42F4DD5A680A
:103D9000C0E900321060586070BC0020FFF7A0BF7F
:103DA000D169ECE770BC7047E40800202DE9F843C6
:103DB000002A427B0CBF10260826164204460F46F6
:103DC00012D146EA0203D2091BD14373082E1ED03A
:103DD00000250120FFF784FF102E42D1BFF35F8F33
:103DE000637B23F060036373274B9B68A34245D139
:103DF000EFF30583002B41D13846BDE8F843FEF7C9
:103E000033BC03F07F03437301F064FDDEE7A36876
:103E100013B1204601F066FD04F1180001F01DFE0B
:103E2000A56D04F15808A84511D04FF0000975B1EF
:103E3000284601F057FD05F1180001F00EFEC5F807
:103E400078902846FFF782FFA56DA845EFD10E4B6D
:103E50009B689C42BCD1EFF30585003D18BF01254E
:103E6000B7E7002DBAD0094B40F201129A81002227
:103E7000C3E919221A67044A9360AFE787F31188F0
:103E8000BFF36F8FBDE8F883E4080020200700200F
:103E900070B590F90D20437B002A014604DA03F047
:103EA0007F03437301F016FD4B7B144A63F07F03DD
:103EB00014464B7354F8183FA3421DD1D069C1E991
:103EC00000400160D1610FE08342F8D01B68002BF5
:103ED000F5D093F90E6091F90E50AE42F4DD5868BA
:103EE000C1E90030016059609068431A5842BDE84A
:103EF00070405841FFF7F4BED069E8E7E4080020BD
:103F0000F8B5124B0F46124998680860DDE906655E
:103F1000EFF31181102181F31288BFF36F8F9C683A
:103F20001146204601F0E8FCB5F1FF3F08BFB6F1AD
:103F3000FF3F06D0074932462B4604F1180000F037
:103F400057FA3846BDE8F840FEF78EBBE40800207B
:103F500004090020D9590008F8B50446EFF311868A
:103F6000102383F31288BFF36F8F437BDA0649B2C5
:103F700006D0A173002086F31188BFF36F8FF8BDC0
:103F80008269002AF5D103F07F03437301F0A2FC9C
:103F9000437B817363F07F03437310480546C26916
:103FA00055F8183FAB420FD1C4E900521460C46108
:103FB0000120FFF795FE0120DDE793F90E708F4297
:103FC00005DC9342F0D01B68002BF6D1ECE75A6871
:103FD000C4E9003214605C60EAE700BFE408002036
:103FE00049B9EFF3058030B9054B5A699B689A428D
:103FF00001D0FEF739BB81F31188BFF36F8F704793
:10400000E408002010B5EFF31184102383F3128825
:10401000BFF36F8F437B5A0704D484F31188BFF337
:104020006F8F10BD23F004034373FFF78FFE21460B
:104030000248BDE81040FFF7D3BF00BF830A00204D
:10404000034648B9EFF3058232B9064A51699268CE
:10405000914201D0FEF708BB83F31188BFF36F8F45
:10406000704700BFE4080020EFF31181102383F3B1
:104070001288BFF36F8F054B9A68D37B013BD373D4
:1040800081F31188BFF36F8F704700BFE4080020F1
:1040900038B5EFF31185102484F31288BFF36F8FC6
:1040A0000A4B9A68D37B0133D3730020FFF718FEC5
:1040B00085F31188BFF36F8FEFF3118084F31288BB
:1040C000BFF36F8FBDE83840FFF7BABFE4080020A8
:1040D000024B03F11802C3E906227047E4080020EE
:1040E000F8B5EFF31185102383F31288BFF36F8FB8
:1040F00018498868437B03F07F03437301F0EAFBB0
:104100008B685A7B0C4662F07F025A7354F8182F62
:10411000A2421DD1C869C3E900400360CB610FE032
:104120008242F8D01268002AF5D092F90E7093F905
:104130000E60B742F4DD5168C3E900210B605360A3
:104140000120FFF7CDFD2846BDE8F840FEF78CBA08
:10415000C869E8E7E408002050EA01032DE9F041CE
:1041600005460F4603D1FFF7BBFF00202BE0831C61
:1041700071F1FF3329DB01F085FC2C18EFF3118876
:10418000102383F31288BFF36F8F124E124BB06867
:104190001860FFF7C3FDB06810492A463B46183047
:1041A00000F026F9B268537B43F010035373404686
:1041B000FEF75AFA01F066FC201A63EB03030128AC
:1041C00073F10003D1DBBDE8F0816FF00104241A24
:1041D000D4E700BFE408002004090020D9590008F2
:1041E000B1F1FF3F08BFB0F1FF3F08B506D10A4B60
:1041F000986801F0B6FB4FF0FF3008BDFFF7ACFF49
:10420000C11709304FF00A024FF0000341F10001DD
:10421000FCF760FCF1E700BFE4080020014B986860
:10422000704700BFE4080020044BC01A044BC010C4
:104230005843044B01221A54704700BFA0070020C6
:10424000ABAAAAAA840A0020C3897F2B12D80A4BE2
:104250001B6863B1094B90F90E201B689A4209DB79
:10426000437BDB0606D1064BC31A18BF012303F0BC
:10427000010070470023FAE70C090020080900201C
:104280002006002070B50E4B0E4C1D7C182303FB3E
:1042900005440646204601F0E0FB0B4B0022304669
:1042A0005A55FFF7D1FF48B1084B09491A68013A3E
:1042B0002046D317BDE8704000F09AB870BD00BF2B
:1042C000E4080020A0070020840A00200C09002038
:1042D0002942000838B5EFF31185102383F31288C3
:1042E000BFF36F8F104B114A9C681068A04206D133
:1042F000FFF7C8FF85F31188BFF36F8F38BD00212A
:104300001B7C11600A4AD35C002BF3D02046FFF7D8
:104310009BFF0028EED0637BDB0602D12046FFF72F
:10432000B7FD2046E4E700BFE408002004090020B0
:10433000840A002008B50648064A0749121A01F007
:10434000ABFABDE80840054A0549064801F0A4BAA1
:1043500000000020100600206C7000080000000023
:104360006C70000800000020034B1B680BB9FFF7BE
:10437000B1B90020704700BF1009002030B570B1FE
:104380000B4B5B6898420AD0036843B1D3E9042120
:10439000D0E90445121941EB0501C3E90421D0E934
:1043A000003213605A600023C0E9003330BD00BF03
:1043B000BC05002010B50D4B1C689C4208BF0024B2
:1043C000FFF7D2FF74B1D4E904321B1A62EBE0703C
:1043D000B3F1004F70F1000204DA0028ACBF1846B8
:1043E000002010BD6FF00040FBE700BFBC050020BF
:1043F000B3F1FF3F08BFB2F1FF3FF8B504461D46D9
:104400001746184633D0A160EFF31186102383F3CB
:104410001288BFF36F8F013275F1FF3328DBFFF78E
:10442000A3FF7B1C45F100051B1845EBE075284AEE
:10443000C4E904351368D2F804C0934208BF0023CE
:1044400053BBC4E9002CCCF800405460136893427D
:1044500009D09C4207D11F4B1C6824B9FFF7AAFF63
:104460002146FFF7BDF886F31188BFF36F8FF8BDC3
:104470001949D1E900256FF001039B1A4FF0FF3273
:1044800062EB0505DB1B65EB0005012B75F10002F6
:10449000BCBF01230025CAE7D3E90415D4E904070A
:1044A000884277EB050E08DB401A67EB050763458A
:1044B000C4E90407C5D01B68C2E7091A65EB070504
:1044C000C3E904155968C4E900310C605C60BDE7BC
:1044D000BC05002010090020B80700202DE9F84F86
:1044E0000346EFF31185102282F31288BFF36F8F1A
:1044F000DFF8A8A0DFF8A890DFF8A880C9F80000CE
:10450000DAF800000026504508BF00200027D8E94F
:1045100000124FEAE37C50B1D0E9044EA3427CEB99
:104520000E0B19DAE41A6EEB0C06C0E904465B18B0
:1045300042EB0C020024C8E90032C9F80040FFF742
:1045400039FF2146FFF74CF885F31188BFF36F8FD1
:10455000BDE8F84FFFF7BEBE611842EBE472C0E958
:104560000467C8E90012FFF709FF85F31188BFF35C
:104570006F8F83689847EFF31185102383F31288B8
:10458000BFF36F8FD9F80030DAF800001B1BC9F8B1
:104590000030504508BF0020B9E700BFBC0500202F
:1045A00010090020B807002010B5EFF31184102384
:1045B00083F31288BFF36F8FFFF7D6FE054AD2E967
:1045C0000031C31841EBE07184F31188BFF36F8FA2
:1045D000184610BDB8070020014800F036BC00BFE7
:1045E000257000082DE9F8430E4607461946104687
:1045F000D6E95823FBF756FED6E91C4522462B4642
:1046000080468946FCF786FC08B1A046A946C6E963
:1046100058890022002320462946FCF77BFC00280D
:104620003ED022462B4640464946FCF71BF904463D
:104630000D4622462B4620462946FBF733FE02460E
:104640000B4600201849FBF72BFE22468046894680
:104650002B4620462946FBF7DBFF02460B46404629
:104660004946FBF7D5FFD6E90023FBF7D1FF0F4BF7
:1046700000228046894620462946FCF741FC00225C
:10468000002320B1C6E958230121C6F89010C7E9DC
:104690000089C7E90223C7E904233846BDE8F88347
:1046A000024D0024C5E700BF000008400000F03FB5
:1046B000154B70B500250446C0E90031C0E902552C
:1046C00005610E4640222946143000F0E5F9656583
:1046D000C4E91755A56584F864509EB1304601F0D1
:1046E000ABF878B16068836863B19B6C53B10749DC
:1046F00022469847606883689B6A03B19847012304
:1047000084F86430204670BD6C6D0008095D0008B7
:1047100013B50B4CCDE900010346811D4FF6FF7028
:10472000994201D102B010BD13F8012B80EA02209A
:10473000020A34F8122082EA002290B2F0E700BFA9
:104740007068000800F000B800F016B9F8B5064629
:104750000F4600F023F8324604460D463B463046ED
:104760003946FCF77BFC30B930463946002200233D
:10477000FCF7B2FB10B920462946F8BD00F06FFCEB
:10478000002200232121016010461946FCF76AF837
:1047900004460D4620462946F8BD00BF2DE9F84FD6
:1047A000724B8B4304460D4600F0AC8000290A464C
:1047B000034655DD0C1562D0C2F31302E007A4F2E4
:1047C000FF3142F4801203D4520002EBD3725B003B
:1047D000520000264FEA610902EBD37216245B00F7
:1047E000B4464FF400110CEB010090424FEAD37530
:1047F0004FEA430303DC00EB010C121A0E44013CA8
:1048000005EB42024FEA5101EDD1274620254FF03A
:1048100000400AE042D0510001EBD371013D0A464D
:104820004FEA43034FEA500044D0624500EB070EC5
:10483000F0DDBEF1000F0EEB00070CDBE046A2EB53
:104840000C019E4588BF01F1FF314900C446A3EB2E
:104850000E030444E0E7002FF0DB0CF10108EEE763
:1048600021F00047074345D000296ED1D90A153AF7
:104870005B050029FAD0CE02144673D40A46002103
:104880005200D502084601F10101F9D5C1F1200518
:1048900023FA05F52A438B40241A8DE79E4502D959
:1048A0004FEA4C01B8E7BEF1000F0EEB000723DB27
:1048B0000021CCE7194313D02D4FDFF8B880D7E99A
:1048C0000001D8E90023D7E900BCDA46E346FBF74C
:1048D000E7FC02460B4650465946FCF707FBD8B9A1
:1048E0006508731003F17F5303F5001303EB0951BF
:1048F00045EAC670BDE8F88F002FD9DB0CF1010C3A
:104900000021A4E702460B46FBF782FE22462B4617
:10491000FBF7C8FCBDE8F88FB4F1FF3FD7E9000111
:10492000D8E900231AD0FBF7BDFCD7E9007802468E
:104930000B4638464146FCF7CFFA88B1A31C04F178
:10494000020508BF01366D08CBE702460B46FBF7B0
:10495000A7FC02460B46FBF785FFCBE70136C0E715
:104960000134BDE74FF0FF300A4695E70000F07FC5
:10497000786A0008706A0008024B0146186800F067
:1049800055B900BFCC050020014800F060BB00BF56
:10499000FC050020014800F060BB00BFFC050020C2
:1049A00088420BD98B18834208D94AB3024413F8C2
:1049B00001CD02F801CD9942F9D170470F2A0BD8E9
:1049C000F2B1013A0132431E0A4411F801CB03F857
:1049D00001CF9142F9D1704740EA01039B072DE9CD
:1049E000F0410D460DD0013A03460132013B0A4425
:1049F00011F801CB03F801CF9142F9D1BDE8F08164
:104A0000704722F00F0CACF1100401F1200E01F1FF
:104A100010032646A64400F1100C53F8104C4CF835
:104A2000104C53F80C4C4CF80C4C53F8084C4CF808
:104A3000084C53F8044C4CF8044C103373450CF1FB
:104A4000100CEAD101EB060C831910330CF11001A4
:104A500012F00C0F1E4602F00F0E0F4619D0AEF1E9
:104A6000040E2EF003039C4498460CF1140C441BD6
:104A70000B680B5104316145FAD108F1040C07EBC6
:104A80000C0106EB0C0302F00302002AB6D0013A37
:104A9000ABE77246F9E700BF30B5840786460346A8
:104AA00006D0A2B303F8011B980702F1FF32F8D138
:104AB000032A26D95FFA81FC0CEB0C2C0F2A0CEB95
:104AC0000C402AD922F00F0C9C44C3E90000C3E932
:104AD000020010336345F8D112F00C0F02F00F04FE
:104AE00017D04FEA940C0CF1FF351A4603EB8C0CEF
:104AF00042F8040B6245FBD1043304F0030203EBDC
:104B0000850322B11A4403F8011B9A42FBD1704677
:104B100030BD2246002AF5D1F9E71446E1E700BF8F
:104B200059B1034600EB010C02E001339C4504D06F
:104B30001A78002AF9D1181A70470846704700BF42
:104B400038B5074C0023054608462360FDF7F2FF01
:104B5000431C00D038BD2368002BFBD02B6038BD30
:104B6000780A0020082802D14FF48050704708B519
:104B700000F075FA162303604FF0FF3008BD00BF48
:104B8000F8B5064608200C46FFF7ECFF074630460E
:104B9000FFF7FAFE224A93685D6825F00305A5F148
:104BA00011031C1B3C44B4FBF7F4013C07FB04F469
:104BB000A74208DC00213046FFF7C2FF184A93687D
:104BC0002B44984204D03046FFF7E4FE0020F8BDA5
:104BD00061423046FFF7B4FF0130114A0DD0114950
:104BE00093682D1B45F001055D600B6830461B1B6B
:104BF0000B60FFF7CFFE0120F8BD00213046FFF724
:104C00009FFF074A9268831A0F2BDCDD43F00103F4
:104C10005360054B03491B68C01A0860D3E700BF07
:104C20000000002014090020C4050020002963D0E2
:104C30002DE9F0410C460746FFF7A6FE54F804ECB8
:104C40007D49A4F1080C2EF001030CEB03028D68E2
:104C50005068954220F0030000F08B8015185060DA
:104C60006D6805F001060EF00105A5BB54F8084C6F
:104C7000ACEB040C2344DCF8084001F1080E744549
:104C80006AD0DCF80C50E560AC60002E00F08E803D
:104C900043F00100CCF804001360B3F5007F35D277
:104CA000DA0848685C090132012312B2A3400343C9
:104CB0004B6051F83200CCF8080001EBC203083B0E
:104CC000CCF80C3041F832C0C0F80CC03846BDE812
:104CD000F041FFF75FBE86B9034401F1080E90680A
:104CE000704543F001047CD0D268C2609060CCF87B
:104CF00004404CF80330D0E770474EF00102B3F5A2
:104D0000007F44F8042C4CF80330C9D3B3F5206F6E
:104D10004FEA53204CD2980900F1390212B200F147
:104D20003804D20088188A580838904203D161E0CC
:104D30009268904204D0516821F003019942F7D85B
:104D4000D068CCE90220C0F808C03846C2F80CC0D0
:104D5000BDE8F041FFF71EBEB6BB1844D2E90223FE
:104D6000D3609A6040F00103CCF804304CF80000A6
:104D7000ACE718440EF0010343B954F8083CACEB1F
:104D8000030C1844DCE90223D3609A6040F001036D
:104D9000CCF80430294BC1F808C01B68834295D871
:104DA000274B38461968FFF7EBFE8FE7034496E779
:104DB00014280FD9542824D8180B00F16F0212B20E
:104DC00000F16E04D200ADE743F00101CCF804100D
:104DD00013607BE700F15C0212B200F15B04D200C9
:104DE000A0E7C1E904CCCCE902EECCF804404CF8D1
:104DF00003306BE7A4100123A3404C6823434B60AE
:104E00009FE7B0F5AA7F07D8D80B00F1780212B25D
:104E100000F17704D20085E740F25452904206D860
:104E2000980C00F17D0200F17C04D2007AE74FF487
:104E30007E727E2476E700BF00000020C8050020B7
:104E40003C0900207047002070470FB407B504A943
:104E500051F8040B0191FCF705FE03B05DF804EB7B
:104E600004B07047044608B5084611461A46A047E4
:104E7000FFF7D4F9FDF7E2FBF0B54568C668446971
:104E8000C369AF1B2C1B1C1BBB429CBFF618FF1A2F
:104E9000944228BF14460268AD1B2A44DB1B0A60FB
:104EA0004268A34228BF23461A4442601846F0BD18
:104EB000D0E90123D21A8A420CD31944C368C269CB
:104EC000C0E90111C91A8A4201D900207047134470
:104ED000C360FAE76FF0150070472DE9F341804693
:104EE0000E46154600272A4601A94046FFF7C4FF93
:104EF0003146044602460198FCF716F82D1B27445C
:104F000002D02644002CEED139464046FFF7D0FFB0
:104F1000384602B0BDE8F081F0B504698669C3691E
:104F20008568A71B2D1BBB429CBFF618FF1A954234
:104F300028BF15460268A41B2244DB1B0A600269D5
:104F4000AB4228BF2B461A4402611846F0BDD0E997
:104F50000423D21A8A420CD31944D0E90632C0E99C
:104F60000411C91A8A4201D9002070471344836191
:104F7000FAE76FF0150070472DE9F34180460D46C2
:104F800016460027324601A94046FFF7C5FF0446F2
:104F90002DB1024601992846FBF7C6FF2544361B72
:104FA000274401D0002CEDD139464046FFF7CFFF12
:104FB000384602B0BDE8F0817047012801D1EFF317
:104FC0000583FEF74BBC01460068FFF7F6BF08B546
:104FD000FDF7B0F9BDE80840FDF7B0B900210120A8
:104FE000FFF7EBBF61B662B680F31188BFF36F8F36
:104FF000704772B6002383F31188BFF36F8FBFF33E
:105000004F8F30BF62B6BFF36F8F70470023102100
:1050100003F1604202F561420133522B82F8001322
:10502000F6D17047202809D9B0F1004F08D80138CF
:10503000B0FA80F0C0F11F004000704708207047B0
:105040003E2070474FF0FF307047002070474FF010
:10505000FF324FF0FF33FEF753BDFEF7C7BDFEF73B
:10506000F7BB08B5062201210020FDF79DFD0022B7
:1050700011460620FDF768FB012108460722FDF7CF
:1050800093FD002211460720FDF75EFB0822012157
:105090000220FDF789FD002211460820FDF754FB90
:1050A000092201210320FDF77FFD0022114609207E
:1050B000FDF74AFB0A2201210420FDF775FD0022BD
:1050C00011460A20FDF740FB052108461722FDF78F
:1050D0006BFD002211461720FDF736FB2822062122
:1050E0000A20FDF761FD002211462820FDF72CFB68
:1050F000002008BD0B68A3F14802182A82B012D81C
:1051000003F1804303F5043348681A6802431A60C8
:105110000B6803F1804303F5043300201B680193FF
:10512000019B02B070476FF08500FAE70B68A3F1AE
:105130004802182A9FBF03F1804303F504334968EE
:105140001A689DBF8A4300201A606FF0850070477F
:1051500010B50B68013B092B27D840F24F2222FAE9
:1051600003F3DB0721D54A68FF2A1CD0D3B203F131
:10517000804303F50433C2F342341868C2F30422B7
:1051800004FA02F220EA02021A604968CBB203F183
:10519000804303F50433C1F302421868C1F30421CC
:1051A0008A4002431A60002010BD6FF08500FBE7C3
:1051B0000B68A3F14802182A0AD803F1804303F5CB
:1051C00004331A684B6893430CBF022001207047D8
:1051D000013B092B9FBF40F24F20D84000F0010057
:1051E000013088BF01207047704743685B681B69C6
:1051F0000B600020704743685B68586942400A4072
:1052000042405A610020704743685B680020996102
:10521000704743685B6800209962704743685A682A
:1052200053694B4053610020704730B5036998685B
:1052300000B30024884219D108688CB9DC689860F2
:10524000A14200D1D860002008602AB19A680A60A3
:10525000DA68996002B9D96000200FE02846E9E7D2
:105260002060D868814208BFDC60ECE7056804462E
:10527000002DF3D1002AE9D16FF0150030BDF0B553
:1052800002F030054468302D08BFE66A4FF0010097
:1052900000FA01F004BF0643E6626768C2F38016B5
:1052A00027EA00078E403E43666090FAA0F7B7FAFF
:1052B00087F7D4F808C04FF0030E7F000EFA07F707
:1052C0002CEA070C90FAA0F7B7FA87F7C2F3C116D9
:1052D0007F00BE4046EA0C06A66090FAA0F6B6FA39
:1052E00086F6E76876000EFA06F627EA060790FAD1
:1052F000A0F6B6FA86F6C2F341227600B2403A43EF
:10530000202DE26016D107292BDC90FAA0F2216A49
:105310002AB3B2FA82F292000F2606FA02F221EACA
:10532000020190FAA0F2B2FA82F2920003FA02F2BB
:105330000A43226290FAA0F3B3FA83F3226890FA48
:10534000A0F05B000321B0FA80F02D0901FA03F30D
:10535000400022EA030385401D432560F0BD2A4634
:10536000D9E7020A666A92FAA2F181B1B1FA81F133
:1053700089000F2792FAA2F2B2FA82F207FA01F13B
:10538000920026EA010193400B436362D2E729466B
:10539000EEE713469A0310B51AD59C0711D55A07A4
:1053A00028D55022DC060ED542F4007213F4002FEB
:1053B00044681AD15B0341BF012364688B40A36238
:1053C0000DE01022EEE79C06F0D542F48062EDE796
:1053D000DC0312D5DA0612D4C3F340139A024068F4
:1053E0000023FFF74CFF002010BD646801238B40B1
:1053F000A361F4E76FF08500F6E73022EFE74FF4A2
:105400000072ECE7F8B58B6823B101254E681C6883
:10541000854003B9F8BD9A682A4003D05F681946F1
:105420003046B8471CB1226823461446F1E72246AD
:10543000FAE7F8B51F46044640680E461546FFF7E2
:105440001EFF112F08D1012303FA06F663685B687B
:105450002A054CBF9E619E620020F8BD30B50368EE
:1054600013600579046804EBC504A34202D36FF00E
:10547000010030BD5C798C4203F10803F0D10020BB
:10548000F7E74368C1F34B101B6801F01F01C058D8
:1054900001238B40034214BF01230023137000201B
:1054A000704710B54368C1F34B101A6801F01F0133
:1054B000845801238B4023438350002010BD10B536
:1054C0004368C1F34B14186801F01F0123580122EF
:1054D0008A4023EA02032350002010BD38B5044659
:1054E0000D46FFF7DEFF29462046BDE83840FFF7AE
:1054F000E6BF37B50369024618688368DB680D4666
:105500008BB1516801AA0C68C968984700280ADB6A
:10551000236823F400432360019B03EB5503B3FB93
:10552000F5F39BB2E36003B030BDB0F5805F07D008
:10553000B0F1805F09D100290CBF02200120704723
:1055400000290CBF04200320704700290CBF032052
:105550000220704743681B68D869DA69C0F3C0004D
:1055600002F0010240EA4200DA699207DA6948BFB4
:1055700040F004005107DA6948BF40F02000D2052E
:1055800042BF4FF4807240F008001A62C10744BF66
:1055900008221A62820744BF01221A62410744BFEF
:1055A00002221A62820644BF04221A6270474368CC
:1055B0001A6852E8003F43F0400342E800310029F6
:1055C000F7D1704743681A6852E8003F23F0400360
:1055D00042E800310029F7D1704743681A6852E861
:1055E000003F43F0200342E800310029F7D1704723
:1055F00043681A6852E8003F23F0200342E8003174
:105600000029F7D1704743681B68D869C0F3401080
:105610007047012070470369C3E9021270470269AD
:1056200093680BB1D1681847704708B50022252050
:105630001146FDF789F8BDE808402520FDF776B84A
:1056400008B5002226201146FDF77EF8BDE8084087
:105650002620FDF76BB808B5002227201146FDF77C
:1056600073F8BDE808402720FDF760B843681B6861
:10567000D869C0F38010704743681B68D86910F080
:1056800080001CBF1868C0F38010704710B5036914
:105690005B681B680B6043681B681B6803F4C0638E
:1056A000B3F5806F04460A4633D0A3F5C060434289
:1056B0004341137163681B685B6803F44053B3F59F
:1056C000805F28D0B3F5405F27D0002B0CBF0123AB
:1056D0000323537163681B681868196800F0102071
:1056E00001F4C061FFF721FF907163681B689B683C
:1056F00003F44073A3F540714B424B41D371616891
:105700000968896811F4804F18BF0323D371002002
:1057100010BD0223CDE70023DBE70223D9E7F8B56C
:1057200043681B680E461868196800F0102001F4E1
:10573000C061FFF7FAFE04281BD0D86910F0800082
:1057400016D0EFF31185102181F31288BFF36F8F0C
:105750000024E1B28A42084606DDDF693F0603D530
:10576000715C19850134F4E785F31188BFF36F8FFD
:10577000F8BD6FF08500FBE710B543681B6810208B
:10578000DA691206FCD5EFF3118280F31288BFF3B9
:105790006F8FDC69240604D482F31188BFF36F8F06
:1057A000EEE7198582F31188BFF36F8F10BD436850
:1057B0001B68DA69910602D51A68920607D4D8697F
:1057C00010F0400004D01868C0F38010704701202A
:1057D0007047F8B543681B680E461868196800F0F2
:1057E000102001F4C061FFF7A0FE042810D00021B2
:1057F0000825CCB2A24220460CDDDF69BF0609D5E0
:10580000988C3055D869000700D51D620131F0E74A
:105810006FF08500F8BD43681B68DA69100744BF64
:1058200008221A62DA69920643BF9B8C0B70002033
:105830004FF0FF307047704740B1C368587810F0A0
:1058400001001EBF1878B0FA80F040097047EFF3EE
:105850001183102383F31288BFF36F8FFEE708B51F
:10586000FFF7F5FF10B5D0E9003433B90020E26846
:10587000537843F00103537010BD20469847002829
:10588000F4D00028B8BF4042E368FF28A8BFFF203B
:105890001870ECE7FFF700B9FBF746BB08B5FEF759
:1058A00013F9BDE80840FEF71DB908B51024EFF361
:1058B000118384F31288BFF36F8FFFF79AFBF6E72B
:1058C00090F90E308B4201D0FEF746BB00207047A6
:1058D000FEF798BBD0E9003213605A600023C0E99C
:1058E0000033704708B5FFF7F5FF437B23F0020351
:1058F00043730023836008BD38B504460D46FEF7A8
:105900000DFA637B43F002036373D5B1A5602B6886
:105910009D4209D16B68C4E900531C606C6010E0C3
:105920006A689342F6D01B68002BF3D093F90E10EF
:1059300094F90E209142F3DD5A68C4E900321460F4
:105940005C6038BD10B5EFF31184102383F3128827
:10595000BFF36F8FFEF7FAF984F31188BFF36F8FEF
:1059600010BD10B50446183000F077F8EFF3118140
:10597000102383F31288BFF36F8F627B1A4004D029
:1059800081F31188BFF36F8F10BD2046BDE8104032
:10599000FEF70CBA38B50446EFF31185102383F3F4
:1059A0001288BFF36F8F437B03F028034BB98368E2
:1059B0007BB9637B51B903F0FB0363732046FEF7A9
:1059C000C5F985F31188BFF36F8F38BD03F0EB0382
:1059D000F3E7FFF787FFECE701211838FFF7DABF9D
:1059E00038B5EFF31185102383F31288BFF36F8F5F
:1059F0000468A0420DD034B12046FFF773FF04F1D4
:105A0000180000F02AF885F31188BFF36F8F204645
:105A100038BD0024F7E7EFF31181102282F31288DA
:105A2000BFF36F8F027BD2070CD581F31188BFF3D0
:105A30006F8F002383F31188BFF36F8F0423184601
:105A400002DF7047437B1B0704D581F31188BFF346
:105A50006F8F70470122FEF7A9B910B5EFF31184DB
:105A6000102383F31288BFF36F8F03683BB1FEF7F7
:105A700085FC002084F31188BFF36F8F10BD6FF099
:105A80001500F7E708B5FEF78FFD08BDFEF78CBDE2
:105A9000D0F890007047002200230021C0E92C2399
:105AA000C0E93223C0E93C23C0E94223C0E94C23CA
:105AB000C0E9522380F8D01080F8101180F85011FE
:105AC000704708B5FFF7E7FF0223C0F8903008BD24
